:020000040800F2
:100000005808002029020008D71A000871160008B5
:10001000D51A00081F040008711F00080000000026
:10002000000000000000000000000000DB1A0008D3
:100030002104000800000000D91A0008DD1A000899
:10004000430200084302000843020008430200087C
:10005000430200084302000843020008430200086C
:10006000430200084302000843020008430200085C
:10007000430200084302000843020008430200084C
:10008000430200084302000843020008430200083C
:10009000430200084302000843020008430200082C
:1000A000430200084302000843020008430200081C
:1000B000430200084302000843020008430200080C
:1000C00043020008430200084302000843020008FC
:1000D00043020008430200084302000843020008EC
:1000E00043020008430200084302000843020008DC
:1000F00043020008430200084302000843020008CC
:1001000043020008430200084302000843020008BB
:1001100043020008430200084302000843020008AB
:10012000430200084302000843020008430200089B
:10013000430200084302000843020008430200088B
:10014000430200084302000843020008430200087B
:10015000430200084302000843020008430200086B
:10016000430200084302000843020008430200085B
:100170004302000843020008430200080000000098
:10018000430200084302000800F002F800F03CF8C7
:100190000AA090E8000C82448344AAF10107DA45E2
:1001A00001D100F031F8AFF2090EBAE80F0013F0F8
:1001B000010F18BFFB1A43F0010318473C1E000053
:1001C0005C1E0000103A24BF78C878C1FAD85207E4
:1001D00024BF30C830C144BF04680C6070470000C1
:1001E0000023002400250026103A28BF78C1FBD840
:1001F000520728BF30C148BF0B6070471FB501F0E0
:10020000E9FE1FBD10B510BD00F0CFF81146FFF795
:10021000F5FF01F0BFFE00F0EDF803B4FFF7F2FFC9
:1002200003BC00F0F5F80000094880470948004782
:10023000FEE7FEE7FEE7FEE7FEE7FEE7FEE7FEE796
:10024000FEE7FEE704480549054A064B70470000F3
:10025000791B000889010008580200205808002076
:10026000580400205804002053EA020C00F0698072
:100270002DE9F04B4FF00006002B1FBFB3FA83F5BA
:1002800003FA05F424FA05F65E4012BF1643B2FAEB
:1002900082F502FA05F4C5F120051EBF22FA05FC1D
:1002A00044EA0C04203556EA044C4FEA144418BFC3
:1002B000641C4FF000084FF00009904271EB030CF2
:1002C00039D3002919BFB1FA81F701FA07F6B0FA5C
:1002D00080F700FA07F6C7F120071EBF20FA07FCD7
:1002E00046EA0C062037B6FBF4FCA7EB0507103FE7
:1002F00007F01F0BCBF120060CFA0BFB2CFA06F6CD
:1003000044BFB3460026202FA4BF5E464FF0000B2B
:100310005BEA060C08BF4FF0010B19EB0B09ABFBB6
:10032000027C48EB0608C01B06FB02CC0BFB03CC8F
:1003300071EB0C01C1E70B46024641464846BDE859
:10034000F08B13B54FF000004FF00001AFF30080C9
:10035000BDE81C4070474FF0000200B513469446BC
:100360009646203922BFA0E80C50A0E80C50B1F10D
:100370002001BFF4F7AF090728BFA0E80C5048BF21
:100380000CC05DF804EB890028BF40F8042B08BFBF
:10039000704748BF20F8022B11F0804F18BF00F8BB
:1003A000012B7047704770477047754600F02CF876
:1003B000AE4605006946534620F00700854618B052
:1003C00020B5FFF73FFFBDE820404FF000064FF09B
:1003D00000074FF000084FF0000B21F00701AC467A
:1003E000ACE8C009ACE8C009ACE8C009ACE8C00999
:1003F0008D46704710B50446AFF300802046BDE837
:100400001040FFF70ABF000000487047F4010020C9
:1004100001491820ABBEFEE7260002007047FEE748
:10042000704772B6FEE770B5040003D094F8200060
:1004300010B104E0012070BD204600F081F8206872
:10044000016841F00101016000F0AEF905460526A2
:1004500004E000F0A9F9401B0A2811D82068406880
:10046000C007F6D02068016821F00201016000F0A9
:100470009BF905460BE000F097F9401B0A2806D9C6
:10048000606A40F40030606284F82060D2E720683F
:1004900040688007EFD4207E0128206801683DD0A5
:1004A00021F080010160607E01282068016838D059
:1004B00021F040010160A07E01282068016833D04E
:1004C00021F020010160E07E0128206801682ED023
:1004D00041F010010160207F01282068016829D0C7
:1004E00021F008010160607F01282068016824D0A4
:1004F00021F004010160D4E902010843D4E90412A7
:10050000114308436168491E08432168C8610020FF
:100510006062012084F82000002070BD41F080015D
:10052000C0E741F04001C5E741F02001CAE721F0F2
:100530001001CFE741F00801D4E741F00401D9E709
:1005400010B586B0044614216846FFF704FF14492D
:100550002068884221D113480021026842F00072CD
:100560000260006800F0007005900E4810380268C4
:1005700042F001020260006800F0010005904FF4B3
:10058000C05000900220CDE9010103200390092012
:1005900004906946044800F009F806B010BD000058
:1005A0000064004040380240000002402DE9F84F4E
:1005B000DFF8BCA10022012503264FF00F090AF144
:1005C000040BAAF1040E00BF0B6805FA02F42340E5
:1005D000A34270D10F7907F00307012F01D0022F3A
:1005E00016D187684FEA420806FA08FC27EA0C078A
:1005F000D1F80CC00CFA08FC4CEA070CC0F808C093
:100600004768A7430C79C4F3001494403C4344600A
:100610000C79E443A4070AD0C4684FEA420C06FAF6
:100620000CF7BC438F6807FA0CF72743C7600C79B7
:1006300004F00304022C12D1D40800EB840CDCF883
:1006400020405707FF0E09FA07F824EA0804D1F8FA
:10065000108008FA07F848EA0408CCF820800468FB
:100660004FEA420C06FA0CF7BC430F7907F0030778
:1006700007FA0CF7274307604C6814F4403F70D02A
:100680003C4C276847F480472760246822F0030722
:1006900004F480440094384C07EB040CDCF8084860
:1006A00097074FEA177809FA08F7BC43334FB84267
:1006B00002D1002724E054E0314FB84201D1012794
:1006C0001EE0304FB84201D1022719E02E4FB84248
:1006D00001D1032714E02D4FB84201D104270FE0C8
:1006E0002B4FB84201D105270AE02A4FB84201D169
:1006F000062705E0284FB84201D1072700E0082768
:1007000007FA08F72743CCF80878DAF8004057468C
:10071000D1F804C09C435FEACC2C00D51C433C605C
:10072000DBF800405F46D1F804C09C435FEA8C2CA4
:1007300000D51C433C60DEF800407746D1F804C089
:100740009C435FEA8C3C00D51C433C60084F083F4B
:100750003C68D1F804C09C435FEACC3C00D51C4304
:100760003C60521C102AFFF42FAFBDE8F88F000048
:10077000083C014044380240003001400000024083
:100780000004024000080240000C02400010024039
:100790000014024000180240001C02400AB18161AE
:1007A00070470904FBE700000148806870470000BB
:1007B0000000002070B5040025D094F83D0000250D
:1007C00020B984F83C50204600F0B8F8242084F882
:1007D0003D002068016821F0010101602068016886
:1007E00041F4004101602068016821F4004101608A
:1007F00000F0FEF94D4A6168914201D84C4900E091
:100800004C49884201D2012070BD4B492368B0FB9E
:10081000F1F15E6826F03F060E435E606368934226
:1008200006D94FF4967359434FF47A73B1FBF3F141
:100830002368491C1E6A26F03F063143196261682D
:10084000914210D84900401EB0FBF1F2521CC2F395
:100850000B02042A01D2042022E0B0FBF1F0401C7C
:10086000C0F30B001CE0A268F2B301EBC10303EB81
:100870000116431EB3FBF6F35B1C43F480431B05D8
:1008800049D092B301EBC10202EB0111401EB0FB53
:10089000F1F0401CC0F30B0040F4804040F40040F5
:1008A0002168CA694CF6FF739A431043C861D4E9C2
:1008B000071001432068026822F0C0021143016062
:1008C000D4E9030101432068826848F2FF339A4368
:1008D00011438160D4E9050108432168CA6822F008
:1008E000FF021043C86001E00EE016E020680168D6
:1008F00041F0010101602564202084F83D0025635A
:1009000084F83E50002070BD01EB4106431EB3FB4E
:10091000F6F35B1CB3E70120C2E701EB4101401E87
:10092000B0FBF1F0401CC0F30B00B7E7A08601005C
:1009300080841E0000093D0040420F0010B586B0C3
:10094000044614216846FFF706FD134920688842D3
:1009500020D112480021026842F0020202600068C1
:1009600000F002000590C02000901220CDE90101A6
:10097000032003900420049069460948FFF716FEFF
:1009800006481030016841F400110160006800F46D
:100990000010059006B010BD0054004030380240F1
:1009A0000004024002488168027811448160704767
:1009B000000000200B4810B5016841F4007101608F
:1009C000016841F480610160016841F48071016057
:1009D000032000F061F80F2000F006F800F024F882
:1009E000002010BD003C024070B50D4D04464FF490
:1009F0007A712878B1FBF0F00A490968B1FBF0F090
:100A000000F0FEFA48B9102C07D200222146501EF1
:100A100000F022F800206C6070BD012070BD000065
:100A2000000000200C0000200A4808B5016841F4CD
:100A300080410160006800F4804000900548001F7C
:100A4000016841F080510160006800F08050009022
:100A500008BD000044380240F0B40E4B1B680C4641
:100A6000C3F30223C3F10705042D00D90425191D82
:100A7000072901D2002300E0DB1E012606FA05F15A
:100A8000491E214099409E40761E16403143F0BCDD
:100A900001F06FBA0CED00E0064900F007020868AB
:100AA0004FF6FF03184040EA0220034A1043086053
:100AB000704700000CED00E00000FA052DE9F0475A
:100AC0000E46050065D0DFF81481D8F80000F7B2B3
:100AD00000F00700B04207D288F80070D8F8000094
:100AE00000F00700B04254D128683D4C810712D570
:100AF000400703D5206840F4E050206028780007C4
:100B000003D5206840F4604020602068A96820F088
:100B1000F000084320602878C0072DD0304968686D
:100B20000839012812D0022813D0032811D00968EF
:100B3000890700292DDA216821F003010143216092
:100B4000FFF732FE814641F2883A0EE009688903D8
:100B5000EFE709688901ECE7FFF726FEA0EB090142
:100B6000514502D90320BDE8F0872068696800F08C
:100B70000C00B0EB810FEFD1D8F80010404601F027
:100B80000701B14207D90770006800F00700B042C2
:100B900001D00120E7E72878400705D52068E968FB
:100BA00020F4E050084320602878000706D520682C
:100BB000296920F4604040EAC100206000F038F864
:100BC0002168084AC1F30311515CC8400649086016
:100BD00006480068FFF708FF0020C4E7003C024019
:100BE00008380240DE1F00080C000020040000202E
:100BF0000448054900680968044AC1F38221515C30
:100C0000C84070470C00002008380240EE1F000862
:100C10000448054900680968044AC1F34231515C3F
:100C2000C84070470C00002008380240EE1F000842
:100C3000154810B5006810F00C02144813D0144980
:100C4000042A0FD0082A0ED10F4C241F22682368D3
:100C500002F03F025B0207D52068C0F38810A0FBBA
:100C6000010106E0084610BD2168C1F38811A1FB0F
:100C700000010023FFF7F8FA2168C1F30141491C84
:100C80004900B0FBF1F010BD083802400024F40028
:100C900040787D012DE9F84F04006ED02078DFF810
:100CA0004C93C007A9F104054AD009F1040001687A
:100CB000C1F38101012908D00068C0F38100022836
:100CC0000AD1D9F80000400206D52868800337D53C
:100CD00060680028E1D033E06068B0F5803F10D054
:100CE000B0F5A02F286810D020F480302860286844
:100CF00020F4802028606068A8B1FFF755FD064603
:100D00000DE0286840F48030F4E740F4802028604B
:100D1000F7E700BFFFF748FD801B642873D82868F9
:100D20008003F7D50CE0FFF73FFD064605E000BF66
:100D3000FFF73AFD801B6428F0D828688003F7D4B9
:100D40002078DFF8AC8280074FF0000A3ED5A74834
:100D5000001D016811F00C0F08D00068C0F381007D
:100D600002280BD1D9F80000400207D42868800778
:100D700016D5E068012800D112E033E1E068B8B18F
:100D80000120C8F80000FFF70FFD064605E000BF90
:100D9000FFF70AFD801B0228C0D828688007F7D516
:100DA0002868216920F0F80040EAC10028600DE0C1
:100DB000C8F800A0FFF7F8FC064604E0FFF7F4FCD3
:100DC000801B02281FD828688007F7D420780007E6
:100DD00022D5864F87486169703771B10121016062
:100DE000FFF7E2FC064604E0FFF7DEFC801B02286A
:100DF00009D838688007F7D50EE0C0F800A0FFF7E3
:100E0000D3FC064605E082E0FFF7CEFC801B0228FB
:100E10007DD838688007F7D42078400768D5DFF898
:100E2000CCB100270BF13C0BDBF80000C0000BD469
:100E3000DBF8001041F08051CBF80010DBF8000027
:100E4000012700F0805000906B4E3068C00510D430
:100E5000306840F480703060FFF7A6FC009005E039
:100E6000FFF7A2FC0099401A022850D83068C0054C
:100E7000F6D55E4EA0686C3601280FD00528306884
:100E800010D020F001003060306820F004003060A5
:100E9000A068B8B1FFF788FC00900FE0306840F020
:100EA0000100F4E740F004003060F7E7FFF77CFC56
:100EB0000099411A41F28830814266D83068800733
:100EC000F4D50EE0FFF770FC009007E0FFF76CFC34
:100ED0000099411A41F28830814256D83068800723
:100EE000F4D42FB1DBF8001021F08051CBF80010C2
:100EF000A069C8B33D49091D0968C1F381010229F0
:100F00004AD00228504607D0C8F8600000E03CE014
:100F1000FFF74AFC04463BE04746C8F86000FFF78D
:100F200043FC064605E000BFFFF73EFC801B02289D
:100F30002BD828688001F7D4D4E907010843A16AB7
:100F40002E4A490802EB0141626A41EA82110843D4
:100F500094F82C1040EA0161C9F8001001203866AD
:100F6000FFF722FC044606E03EE000BFFFF71CFC52
:100F7000001B022809D828688001F7D534E000BF9B
:100F8000FFF712FC001B022802D90320BDE8F88FEE
:100F900028688001F4D427E00128F7D0D9F80000B0
:100FA000E26900F4800191421CD1226A00F03F0105
:100FB000914217D147F6C071626A0140B1EB821FBE
:100FC00010D1A26A4FF0FF3300F4403103EB52021C
:100FD000B1EB024F06D194F82C1000F07060B0EB2A
:100FE000016F01D00120D1E70020CFE70438024093
:100FF00000004742800E4742007000400000FFFFA3
:1010000010B5401EB0F1807F01D3012010BD4FF01C
:10101000E02460610F21601700F0ABFF0020A061A9
:1010200007202061002010BD10B590F83C20012A57
:1010300022D0012280F83C20CA688C6822F44072D9
:1010400022434C6822F4806222430C6822F400623E
:1010500022430C6922F4805222434C6922F400524C
:101060002243C969002322F480420A4301684A648A
:1010700080F83C30002010BD022010BD70B590F803
:101080003C20012A32D0012480F83C40022280F822
:101090003D2003685A689D6822F070060A68324352
:1010A0005A60134B02689A4214D0B2F1804F11D0AB
:1010B000104B9A420ED0104B9A420BD00F4B9A42D3
:1010C00008D00F4B9A4205D00E4B9A4202D00E4BDD
:1010D0009A4204D1496825F080031943916080F851
:1010E0003D40002180F83C10084670BD022070BDD4
:1010F000000001400004004000080040000C0040D7
:1011000000040140004001400018004010B50400F8
:1011100003D094F83D0010B107E0012010BD00207D
:1011200084F83C00204600F01FF8022084F83D00BF
:10113000211D206800F028FD012084F8460084F875
:101140003E0084F83F0084F8400084F8410084F8B1
:10115000420084F8430084F8440084F8450084F891
:101160003D00002010BD000008B501681248814212
:1011700008D11248016841F001010160006800F0E7
:1011800001000BE00D480E4A001F914208D1016892
:1011900041F002010160006800F00200009008BD0B
:1011A000084A9142FBD1016841F0040101600068E6
:1011B00000F00400F2E70000000001404438024063
:1011C000000400400008004070B5044690F83C0060
:1011D0000025012817D0012684F83C60022084F8FD
:1011E0003D002068826822F0770222F47F4282600C
:1011F0000868502838D00DDC20284FD005DC90B38B
:10120000102811D14AE0022070BD302846D0402875
:101210000AD13BE060282FD070280DD0B0F5805F58
:1012200003D0B0F5005F12D0012584F83D600020A6
:1012300084F83C00284670BDCB68D1E901212068C4
:1012400000F017FD2068816841F0770109E0CB6864
:10125000D1E90121206800F00CFD2068816841F48B
:1012600080418160E1E719E0CA684968206800F0C0
:10127000D5FD5021206806E0CA684968206800F062
:10128000DEFD6021206800F0FEFCCEE7CA684968F8
:10129000206800F0C3FD40212068F4E72268014681
:1012A0001046F0E730B587B0044614216846FFF7D2
:1012B00052F82B4A216800242A480225914212D173
:1012C000016841F0100101600068694600F01000FB
:1012D00005904FF4D4400090CDE901540120CDE9B0
:1012E0000340214823E0214A914224D1016841F082
:1012F00001010160016801F001010591016841F0FF
:10130000020101600068694600F002000590C020FB
:101310000090CDE901541648CDE90345FFF746F9A1
:1013200003200090CDE901546946124814E0FFF70C
:101330003DF907B030BD104A9142FAD1016841F041
:10134000080101600068694600F0080005909014EB
:101350000090CDE901540948CDE90345E7E70000D5
:1013600000000140303802400010024000040040FC
:10137000000002400004024000080040000C02404F
:1013800070B5044690F83C0000260D4601280FD0A9
:10139000012084F83C006AB1042A1DD0082A2FD00D
:1013A0000C2A3FD00126002084F83C00304670BD56
:1013B000022070BD206800F06FFC2068816941F058
:1013C000080181612068816921F004018161206840
:1013D00081692A69114311E0206800F08DFC2068C2
:1013E000816941F4006181612068816921F4806133
:1013F0008161206881692A6941EA02218161D2E71D
:10140000206800F0AFFC2068C16941F00801C161AB
:101410002068C16921F00401C1612068C1692A699D
:10142000114311E0206800F0D1FC2068C16941F44B
:101430000061C1612068C16921F48061C1612068D7
:10144000C1692A6941EA0221C161ACE710B5040013
:1014500003D094F83D0010B107E0012010BD00203A
:1014600084F83C00204600F01EF8022084F83D007D
:10147000211D206800F088FB012084F8460084F8D4
:101480003E0084F83F0084F8400084F8410084F86E
:10149000420084F8430084F8440084F8450084F84E
:1014A0003D00002010BD704710B50446022249B12E
:1014B00004290ED0082913D094F84100012816D031
:1014C000012010BD94F83E000128F9D184F83E2097
:1014D0000FE094F83F000128F2D184F83F2008E0A3
:1014E00094F840000128EBD184F8402001E084F812
:1014F00041200122206800F0AFFB16492068164AFF
:10150000884201D0904203D1436C43F400434364CA
:101510002068884213D0B0F1804F10D00F49884224
:101520000DD00F4988420AD00E49884207D0904218
:1015300005D00D49884202D00C49884204D1816807
:1015400001F00701062903D0016841F001010160A3
:10155000002010BD000001400004014000040040D4
:1015600000080040000C004000400140001800400E
:1015700070B5040004D094F84100002510B106E0D5
:10158000012070BD84F84050204600F023F824204C
:1015900084F841002068C16821F40051C1602046F0
:1015A00000F060FC2068016921F49041016120682D
:1015B000416921F02A0141612068C16841F400516C
:1015C000C1606564202084F8410084F842006563AE
:1015D000002070BDF0B587B0044614216846FEF7C0
:1015E000BAFE1F4F236800221E4902240325072646
:1015F0001D48BB4213D11B4B14331F6847F0100723
:101600001F601B6803F0100305930B6843F0010390
:101610000B60096801F001010591690215E0134FA3
:10162000BB421AD10F4B10331F6847F400371F60BD
:101630001B6803F4003305930B6843F001030B6050
:10164000096801F0010105910C21CDE9001402ABFC
:10165000694683E86400FEF7A9FF07B0F0BD00000B
:1016600000100140303802400000024000440040B9
:10167000FEE700000D4810B50B49016010214160E4
:1016800000218160C160016141610176417681760E
:10169000C17601774177FEF7C6FE002803D0BDE88A
:1016A0001040FEF7BEBE10BD0064004010000020D8
:1016B0002DE9F04186B014216846FEF74CFE3E4805
:1016C0000024016841F020010160016801F020015F
:1016D0000591016841F080010160016801F080011D
:1016E0000591016841F001010160016801F001010B
:1016F0000591016841F002010160016801F00201F9
:101700000591016841F010010160016801F01001CC
:101710000591016841F008010160016801F00801CC
:101720000591016841F0400101600068234F00F01D
:1017300040004FF470650590002229463846FFF7B7
:101740002DF8DFF87C80002241F608614046FFF763
:1017500025F80F2000904FF44410CDE90104194EF4
:1017600069463046FEF722FFF020CDE900046946C5
:1017700030460294FEF71AFF0095032601250396D2
:10178000CDE9015469463846FEF710FF0820009065
:10179000CDE90154694640460394FEF707FF4FF434
:1017A000F050CDE90005CDE9024669464046FEF716
:1017B000FDFE06B0BDE8F08130380240000C02406A
:1017C00000180240001402400D4810B50B4901609A
:1017D0000C49416000214FF480428160C0E903124E
:1017E00041618161C1610162FEF7E4FF002803D01D
:1017F000BDE81040FEF715BE10BD000000540040CB
:1018000038000020A086010010B596B000240F9487
:1018100010941194129413941C2168461494FEF7AA
:101820009AFD202107A8FEF796FD34483249016051
:10183000A721C0E901146321C0E903144461846154
:10184000FFF764FC08B1FEF7ECFD4FF480500F90F9
:101850000FA92A48FFF7B8FC08B1FEF7E2FD2748B8
:10186000FFF7F4FD08B1FEF7DCFD139413A923483C
:101870001494FFF703FC08B1FEF7D3FD6020CDE917
:1018800000040294039404940594002269461B48C2
:101890000694FFF775FD08B1FEF7C3FD0422694603
:1018A0001648FFF76DFD08B1FEF7BBFD082269463B
:1018B0001248FFF765FD08B1FEF7B3FD0C2269463B
:1018C0000E48FFF75DFD08B1FEF7ABFD07940894E5
:1018D00009944FF400500A94CDE90B4007A907483A
:1018E0000E94FFF7A1FB08B1FEF79BFD0348FFF73D
:1018F000D9FC16B010BD0000000001408C00002093
:1019000010B58EB000240794089409940A940B949F
:101910001C2168460C94FEF71EFD2B4829490160E6
:101920006321C0E9011441F2FF41C0E903148021A1
:101930008161FFF7EBFB08B1FEF773FD4FF48050B8
:10194000079007A92048FFF73FFC08B1FEF769FDA3
:101950001D48FFF77BFD08B1FEF763FD0B940BA953
:1019600019480C94FFF78AFB08B1FEF75AFD602076
:10197000CDE9000402940022694613480494FFF75D
:10198000FFFC08B1FEF74DFD042269460E48FFF743
:10199000F7FC08B1FEF745FD082269460A48FFF743
:1019A000EFFC08B1FEF73DFD0C2269460648FFF743
:1019B000E7FC08B1FEF735FD0348FFF773FC0EB0F6
:1019C00010BD000000040040D400002010B58EB00F
:1019D00000240794089409940A940B941C216846E7
:1019E0000C94FEF7B8FC1E481C49C0E900144FF6E1
:1019F000FF71C0E9024104618461FFF787FB08B110
:101A0000FEF70FFD4FF48050079007A91448FFF729
:101A1000DBFB08B1FEF705FD1148FFF717FD08B124
:101A2000FEF7FFFC0B940BA90D480C94FFF726FB67
:101A300008B1FEF7F6FC6020CDE900040294002214
:101A4000694607480494FFF79BFC08B1FEF7E9FCE0
:101A50000348FFF727FC0EB010BD0000000800404F
:101A60001C0100200C4810B50A4901604FF4E13117
:101A70004160002181600C22C160C0E904128161D3
:101A8000C161FFF775FD002803D0BDE81040FEF7E7
:101A9000C8BC10BD00100140640100200C4810B506
:101AA0000A4901604FF4E1314160002181600C225C
:101AB000C160C0E904128161C161FFF759FD0028CE
:101AC00003D0BDE81040FEF7ACBC10BD00440040A0
:101AD000AC010020FEE7FEE770477047FEF762BFEB
:101AE00030B593B030216846FEF735FC14210CA8C0
:101AF000FEF731FC1E480025016841F0805101606D
:101B0000006800F0805011901A48016841F480414B
:101B100001600068022400F48040119001200090D0
:101B2000000401908001CDE90640192008904FF48F
:101B3000A870CDE9090404200B906846FFF7AAF8C5
:101B400008B172B6FEE70CA90F2081E831004FF40E
:101B5000A0500F904FF48050109005210CA8FEF774
:101B6000ADFF002801D072B6FEE713B030BD000013
:101B700040380240007000400248016841F47001A2
:101B80000160704788ED00E0F0B50268274B284DF2
:101B9000284E294F294C4FF0804C984209D060457F
:101BA00007D0A84205D0B04203D0B84201D0A0422D
:101BB00004D122F0700E4A6842EA0E0298421BD00D
:101BC000604519D0A84217D0B04215D0B84213D002
:101BD000A04211D01A4DA8420ED01A4DA8420BD0E7
:101BE000194DA84208D0194DA84205D0184DA84259
:101BF00002D0184DA84203D122F44075CA682A4386
:101C00004D6922F080022A438D68C5620D688562A5
:101C1000984201D0A04201D109690163016841F0F5
:101C200004010160012141610260F0BD000001403A
:101C30000004004000080040000C00400004014087
:101C400000400140004401400048014000180040AD
:101C5000001C00400020004010B501F01F030121CE
:101C6000046A99408C430462016A9A4011430162FC
:101C700010BD10B5846842EA032224F47F440A436D
:101C80002243826010BD826822F070020A4342F053
:101C90000701816070470000F0B5036A026A22F014
:101CA0000102026242688469124E24F073050C68D6
:101CB0002C4323F002058B682B430D4DA84201D025
:101CC000B04205D123F00807CB683B4323F004035F
:101CD000A84201D0B04205D14D6922F440721543AB
:101CE0008A692A4342608461496841630362F0BDA6
:101CF0000000014000040140F0B5026A036A23F0CD
:101D000010030362436884690D6824F4E64444EADE
:101D100005248D6822F0200242EA05120F4D104E74
:101D2000A84201D0B04206D1CF6822F0800242EA38
:101D3000071222F04002A84201D0B04207D14D69FB
:101D400023F4406343EA85038D6943EA85034360D6
:101D50008461496881630262F0BD000000000140B7
:101D600000040140F0B5026A036A23F48073036241
:101D70004368C46922F4007224F073050C68124EA3
:101D80002C438D6842EA05220E4DA84201D0B04294
:101D900006D1CF6822F4006242EA072222F4806270
:101DA000A84201D0B04207D14D6923F4405343EA21
:101DB00005138D6943EA05134360C4614968C16333
:101DC0000262F0BD000001400004014030B5046A29
:101DD000026A22F4805202624268C3690D6823F4E9
:101DE000E64343EA05238D6824F4005444EA0534AD
:101DF000084DA84202D0084DA84204D14D6922F4F2
:101E0000804242EA85124260C3614968016404620B
:101E100030BD0000000001400004014010B5036A1D
:101E2000046A24F001040462846924F0F00444EAA2
:101E3000021423F00A020A438461026210BD10B545
:101E4000036A046A24F010040462846923F0A00386
:101E500024F4704444EA023243EA011182610162CF
:101E600010BD000070B5044600680169E26821F405
:101E70004051114301612169A068E2690843616929
:101E8000114308432168CA6849F20C639A4302432C
:101E9000CA6020684169A26921F44071114341611F
:101EA00031492068884202D03049884202D1FEF789
:101EB000AFFE01E0FEF79CFEE269002319216425D4
:101EC0003226B2F5004F626828D0A0FB0101930FC3
:101ED0009200FEF7C9F90146B0FBF5F06FF0180269
:101EE000504301EB800006EB0010B0FBF5F000F072
:101EF000F002B1FBF5F002EB0012B1FBF5F06FF070
:101F00001803584301EB800006EB0010B0FBF5F01E
:101F100000F00F0021681044886070BDA0FB010133
:101F200092185B41FEF7A0F90146B0FBF5F0020103
:101F3000B1FBF5F06FF01803584301EB800006EB9E
:101F4000C000B0FBF5F000F0F80002EB4002B1FB7E
:101F5000F5F0584301EB800006EBC000B0FBF5F054
:101F600000F00700D6E70000001001400014014017
:101F7000FEE70907090E002804DB00F1E02080F8E5
:101F80000014704700F00F0000F1E02080F8141DED
:101F900070470000FEF70EFDFFF7A2FDFFF788FB7C
:101FA000FFF768FBFFF710FCFFF72EFCFFF7A8FC1C
:101FB000FFF70CFDFFF756FDFFF770FD0021044809
:101FC000FFF772FA024840F2931102685163FCE78E
:101FD000D40000204FF04070E1EE100A704700007E
:101FE00000000000000001020304060708090000C9
:101FF0000000010203040000182000080000002077
:1020000010000000C4010008282000081000002073
:1020100048080000E0010008010000001000000076
:08202000000000000024F400A0
:040000050800018965
:00000001FF
